:100000000C9463000C948B000C948B000C94EF09FF
:100010000C94EF090C94EF090C948B000C948B005A
:100020000C948B000C948B000C948B000C948B0024
:100030000C948B000C948B000C948B000C948B0014
:100040000C94A5090C948B000C9473090C944D0925
:100050000C948B000C948B000C948B000C948B00F4
:100060000C948B000C948B0000000008000201002F
:100070000003040700000000000000000000000072
:1000800023002600290000000000240027002A0089
:1000900000000000250028002B00040404040404D0
:1000A0000404020202020202030303030303010227
:1000B00004081020408001020408102001020408F6
:1000C0001020670A310F11241FBECFEFD8E0DEBF2A
:1000D000CDBF23E0A4E1B2E001C01D92A13DB20773
:1000E000E1F712E0A0E0B1E0EEE4F5E202C0059035
:1000F0000D92A431B107D9F710E0C2E6D0E004C0F8
:100100002197FE010E94A210C136D107C9F70E94B3
:100110003A0B0C949A120C940000E7E6F2E0A089E6
:10012000B18982E08C93A485B5851C92A685B7859C
:100130008FEC8C93108EA489B58986E08C93A2896C
:10014000B3898C9180618C93A289B3898C918860EA
:100150008C93A289B3898C9180688C930288F389EF
:10016000E02D80818F7D808308950895AF92BF92A6
:10017000CF92DF92EF92FF920F931F93CF93DF9373
:100180006C017B018B01040F151FEB015E01AE18A2
:10019000BF08C017D10759F06991D601ED91FC91C4
:1001A0000190F081E02DC6010995892B79F7C501F1
:1001B000DF91CF911F910F91FF90EF90DF90CF9043
:1001C000BF90AF9008950895FC01538D448D252F65
:1001D00030E0842F90E0821B930B541710F0CF96E1
:1001E000089501970895FC01918D828D981761F013
:1001F000A28DAE0FBF2FB11D5D968C91928D9F5F2A
:100200009F73928F90E008958FEF9FEF0895FC0108
:10021000918D828D981731F0828DE80FF11D858DBB
:1002200090E008958FEF9FEF0895FC01918D228D4E
:10023000892F90E0805C9F4F821B91098F739927D3
:10024000089587E692E00E94150121E0892B09F4C8
:1002500020E0822F089580E090E0892B29F00E9411
:10026000210181110C9400000895FC01A48DA80FB8
:10027000B92FB11DA35ABF4F2C91848D90E00196E8
:100280008F739927848FA689B7892C93A089B18908
:100290008C91837080648C93938D848D981306C0A9
:1002A0000288F389E02D80818F7D80830895EF920D
:1002B000FF920F931F93CF93DF93EC0181E0888F20
:1002C0009B8D8C8D98131AC0E889F989808185FFF0
:1002D00015C09FB7F894EE89FF896083E889F98992
:1002E00080818370806480839FBF81E090E0DF9194
:1002F000CF911F910F91FF90EF900895F62E0B8DE7
:1003000010E00F5F1F4F0F731127E02E8C8D8E11A1
:100310000CC00FB607FCFACFE889F989808185FF08
:10032000F5CFCE010E943501F1CFEB8DEC0FFD2F03
:10033000F11DE35AFF4FF0829FB7F8940B8FEA89C3
:10034000FB8980818062CFCFCF93DF93EC01888DD2
:100350008823B9F0AA89BB89E889F9898C9185FD40
:1003600003C0808186FD0DC00FB607FCF7CF8C91CE
:1003700085FFF2CF808185FFEDCFCE010E94350150
:10038000E9CFDF91CF91089590E0FC01E859FF4F4C
:100390002491FC01E255FF4F3491FC01E656FF4FDA
:1003A000E491EE23C9F0222339F0233001F1A8F4BF
:1003B000213019F1223029F1F0E0EE0FFF1FE05754
:1003C000FF4FA591B4918FB7F894EC91611126C0BD
:1003D00030953E233C938FBF08952730A9F02830F5
:1003E000C9F0243049F7809180008F7D03C080914F
:1003F00080008F7780938000DFCF84B58F7784BDB6
:10040000DBCF84B58F7DFBCF8091B0008F77809359
:10041000B000D2CF8091B0008F7DF9CF3E2BDACFE4
:100420003FB7F8948091590290915A02A0915B02D3
:10043000B0915C0226B5A89B05C02F3F19F001962C
:10044000A11DB11D3FBFBA2FA92F982F8827BC012E
:10045000CD01620F711D811D911D42E0660F771F56
:10046000881F991F4A95D1F708952FB7F894609186
:1004700055027091560280915702909158022FBFF9
:10048000089520916502309166022817390771F4AA
:100490009091630280916402981741F0E0916302A9
:1004A000F0E0EC5EFD4F808190E008958FEF9FEFCC
:1004B0000895EF92FF920F931F93CF93DF93DC0188
:1004C0005C96ED90FC905D97E114F10479F481E085
:1004D00090E013969C938E93129790E080E0DF91CA
:1004E000CF911F910F91FF90EF9008955196ED914C
:1004F000FC91529750968C915097982F90950FB7EA
:100500005E962C915E97122F127021FD6095F894E3
:100510002081112319F1282B2083E7012197F1F77E
:1005200028E0462F50E0308160FF1AC0382B30831E
:10053000E7012197F1F7BA0175956795215089F781
:10054000112381F08081892380830FBF5C968D9178
:100550009C910197F1F781E090E0C1CF2923DCCF96
:100560003923E5CF9081892BEFCF2091650230911F
:1005700066022817390771F48091640220916302A2
:1005800090E0805C9F4F821B910960E470E00E94C4
:100590007A10089590E080E00895209165023091EE
:1005A000660228173907B9F49091630280916402BA
:1005B000981789F0E0916302F0E0EC5EFD4F8081D6
:1005C0002091630230E02F5F3F4F2F73332720933A
:1005D000630290E008958FEF9FEF089590E080E030
:1005E0000895FC0101900020E9F73197AF01481B05
:1005F000590BBC0187E692E00C94B6008F929F9253
:10060000AF92BF920F931F93CF93DF93CDB7DEB717
:10061000A1970FB6F894DEBF0FBECDBF19A242302E
:1006200008F44AE08E010F5D1F4F842E912CB12CEF
:10063000A12CA50194010E942110E62FB901CA0145
:10064000EA30F4F4E05DD801EE938D01232B242BE6
:10065000252B79F790E080E0109719F0CD010E94EA
:10066000F102A1960FB6F894DEBF0FBECDBFDF91A9
:10067000CF911F910F91BF90AF909F908F90089551
:10068000E95CE1CF1F93CF93DF9300D000D0CDB7CB
:10069000DEB787E692E00E94F30087E692E00E94D0
:1006A000F30010E08A3379F0E1E0F0E0EC0FFD1F99
:1006B000E10FF11D17FDFA9580831F5F87E692E039
:1006C0000E94F300EFCFCE0101960E947E0F182FFB
:1006D00087E692E00E94F3008053990B82309105E7
:1006E00020F4682F812F0E94C40187E692E00E94C7
:1006F000F3008A3011F08D30C1F787E692E00E9456
:1007000007018A3021F487E692E00E94F3000F90FF
:100710000F900F900F90DF91CF911F9108950F933D
:100720001F93CF93DF938C01EB01FC0180819181BA
:100730000097E1F06881798161157105A9F0428126
:1007400053812C813D814217530770F00E94931210
:100750008C819D81F801958384831D821C82DF91A9
:10076000CF911F910F9108950E9444118881998122
:10077000F801918380838A819B81938382838C811A
:100780009D8195838483198218821B821A82E5CF0A
:10079000CF93DF93EC0188819981009711F00E943B
:1007A0004411198218821D821C821B821A82DF91D9
:1007B000CF910895FC0180819181009711F00C94F4
:1007C000441108950F931F93CF93DF93EC01888119
:1007D0009981009759F02A813B812617370730F01D
:1007E00081E0DF91CF911F910F9108958B016F5F91
:1007F0007F4F0E94CD11009759F0998388831B8306
:100800000A832C813D81232B59F7FC011082E8CF0C
:1008100080E0E7CFEF92FF920F931F93CF93DF9388
:100820006115710541F480E0DF91CF911F910F9127
:10083000FF90EF90089541155105B1F07B01EC0157
:100840000C811D81040F151FB8010E94E20388234B
:1008500051F3288139818C819D81B701820F931FCB
:100860000E9493121D830C8381E0DECFCF93DF9330
:10087000EC01FB0101900020E9F73197AF01461B25
:10088000570B0E940A04811103C0CE010E94C803C5
:10089000CE01DF91CF910895CF93DF93EC01FB015F
:1008A00044815581608171810E940A04811103C0D5
:1008B000CE010E94C803CE01DF91CF910895EF923F
:1008C000FF920F931F93CF93DF93EC017B018A017B
:1008D000BA010E94E20381110BC0CE010E94C8033D
:1008E000CE01DF91CF911F910F91FF90EF9008956E
:1008F0001D830C83B701888199810E949312F0CFE8
:10090000FB0101900020E9F73197AF01461B570B1F
:100910000C945F040F931F93CF93DF93CDB7DEB793
:1009200061970FB6F894DEBF0FBECDBF8C01CB012F
:10093000F8011182108213821282158214824AE019
:10094000BE016F5F7F4F0E94F40FBE016F5F7F4F4C
:10095000C8010E94800461960FB6F894DEBF0FBEF6
:10096000CDBFDF91CF911F910F910895CF93DF936A
:10097000EC01FB018617970749F0608171816115D1
:10098000710541F0448155810E945F04CE01DF91E1
:10099000CF9108950E94C803F9CFFC011182108203
:1009A00013821282158214820C94B604FC01118207
:1009B00010821382128215821482FB0101900020A2
:1009C000E9F73197AF01461B570B0C945F046F9208
:1009D0007F928F929F92AF92BF92CF92DF92EF92CF
:1009E000FF920F931F93CF93DF93EC018B01DB01F9
:1009F0001496AD90BC907501B1E0EB1AF108EFEFE1
:100A0000FFEF912C812C90E080E070E060E0E81630
:100A1000F9062CF12617370734F1DC0111966D0128
:100A20008A159B0560F4D8016D907C906114710467
:100A300031F0D301A80FB91F5C91451719F0E816E2
:100A4000F90659F46F5F7F4F4F01BFEF8B1A9B0A76
:100A5000F601E816F90609F0FC01C601D8CF261701
:100A600037070CF03FC06F01E815F90510F064017D
:100A70004F0162E371E0CE010E94D604F801E480E8
:100A8000F580CE14DF04D8F48E149F0408F47401AA
:100A9000D8016D917C91FB01EE0DFF1DB08010829D
:100AA0006C0D7D1DCE0161157105C9F00E94800499
:100AB000F80180819181E80EF91ED701BC92CE0128
:100AC000DF91CF911F910F91FF90EF90DF90CF902A
:100AD000BF90AF909F908F907F906F9008950E94ED
:100AE000C803E6CF62E371E0CE010E94D604E7CFEF
:100AF000AF92BF92CF92DF92EF92FF920F931F932C
:100B0000CF93DF936C017B018A0162E371E080E89F
:100B100093E00E94D60462E371E086E893E00E94CD
:100B2000D60462E371E08CE893E00E94D6046AE2A6
:100B300071E082E993E00E94D60482E090E0909315
:100B400099038093980383E090E090939B038093B4
:100B50009A0310929F0310929E0388EE93E0A0E008
:100B6000B0E08093A0039093A103A093A203B0935D
:100B7000A3038AE091E090939D0380939C031092DD
:100B8000B3031092B2031092B5031092B403109203
:100B9000B7031092B6031092B9031092B803609194
:100BA000BA036E7F6D7F6093BA036695617081E0D2
:100BB000682783E00E94C40141EB50E0FA01649190
:100BC0008DE990E0FC012491222399F030E0220F7E
:100BD000331FF901EA57FF4FA591B491F901E0578E
:100BE000FF4F259134912FB7F8943C91632B6C9370
:100BF0002FBFFA0144914093AC03FC018491E82F8C
:100C0000F0E0EE0FFF1FE057FF4F85919491909316
:100C1000AE038093AD0350EBA52E50E0B52EF50149
:100C20002491CCE9D0E0FE0184918823C9F090E0C2
:100C3000880F991FFC01EA57FF4FA591B491FC0161
:100C4000E057FF4F459154913FB7F8949C91822F04
:100C5000809598239C93FA019081892380833FBFDC
:100C60008091BA0381FD04C061E082E00E94C4016A
:100C700082E08093A803F501A490A092A903FE014D
:100C8000C491EC2FF0E0EE0FFF1FE458FF4F859169
:100C900094919093AB038093AA03B60180E893E00C
:100CA0000E94B604B70186E893E00E94B604B8013A
:100CB0008CE893E00E94B6041092B7031092B6033A
:100CC0001092B5031092B4031092B3031092B203C2
:100CD0008DE991E09093B9038093B8039091A803B4
:100CE000963108F047C02DEB30E03093B3032093EA
:100CF000B2032BE931E03093B5032093B4032CE227
:100D000031E03093B7032093B6032091680084E06C
:100D1000983048F031E09E3008F430E081E001C0C6
:100D2000880F3A95EAF7822B809368002DE630E031
:100D3000983050F02BE630E09E3030F02CE630E07A
:100D4000963110F030E020E03093B0032093AF03F1
:100D5000292F30E0983008F047C081E001C0880FAB
:100D60009A95EAF78093B1038091B8039091B90303
:100D70000197F1F78091B6039091B703892B49F160
:100D8000E0916502F091660283E0EC39F80709F121
:100D9000309739F0A389B4899C91858980958923FE
:100DA0008C938091BA038E7F8093BA031092640271
:100DB000109263028CE993E090936602809365023F
:100DC000E091AF03F091B00380819091B103892B42
:100DD0008083DF91CF911F910F91FF90EF90DF9073
:100DE000CF90BF90AF9008959E3040F428503109C5
:100DF00081E001C0880F2A95EAF7B4CF2E5031095F
:100E0000F7CFBF92CF92DF92EF92FF920F931F9393
:100E1000CF93DF9300D000D000D0CDB7DEB78C01E8
:100E20006B017A01B22E62E371E00E94D604B60132
:100E3000CE0101960E94CD0460E371E0CE010196DF
:100E40000E943604FC0144815581608171818CE9E6
:100E500093E00E94B600CE0101960E94DA030E9440
:100E600035026701FF0CEE08FF08C60ED71EE81E0C
:100E7000F91E0E9435026C157D058E059F05A8F4AC
:100E80008CE993E00E94B502892B99F38CE993E0F9
:100E90000E94CD0289831A8241E050E0BE016F5F5B
:100EA0007F4FC8010E940A04EBCFBB20E1F063E34F
:100EB00071E0CE0101960E94D604B801CE010196E0
:100EC0000E944C04FC01448155816081718187E658
:100ED00092E00E94B60080E391E00E94F102CE0110
:100EE00001960E94DA03C80126960FB6F894DEBF79
:100EF0000FBECDBFDF91CF911F910F91FF90EF906B
:100F0000DF90CF90BF9008958F929F92AF92BF9243
:100F1000CF92DF92EF92FF920F931F93CF93DF93C5
:100F2000CDB7DEB762970FB6F894DEBF0FBECDBF68
:100F30006C017B018A0162E371E0CE010D960E9493
:100F4000D6046CE371E0CE0101960E94D604B6018E
:100F5000CE0101960E944C0462E571E00E943604C5
:100F6000B7010E944C0462E571E00E943604B801AA
:100F70000E944C0462E571E00E943604BC01C70186
:100F80000E94B604CE0101960E94DA03D701AD900B
:100F9000BC901197A114B10441F014960D911C91CD
:100FA00065010115110509F069C0F70164817581BA
:100FB000CE0101960E948A0461E471E0CE01079699
:100FC0000E94D604BE016F5F7F4FCE0107960E943C
:100FD0004C04BC01CE010D960E94B604CE010796CA
:100FE0000E94DA03CE0101960E94DA03BE01635F1C
:100FF0007F4FCE0107960E94CD0421E040ED57E0DF
:10100000BE01695F7F4FCE0101960E940107CE01AC
:1010100001960E94DA03CE0107960E94DA03B70117
:10102000CE0107960E94CD0421E040ED57E0BE01BD
:10103000695F7F4FCE0101960E940107CE010196A4
:101040000E94DA03CE0107960E94DA03CE010D96C4
:101050000E94DA0362960FB6F894DEBF0FBECDBFD2
:10106000DF91CF911F910F91FF90EF90DF90CF9084
:10107000BF90AF909F908F90089564014601BFEF9D
:101080008B1A9B0AF6018081082E000C990B0E9496
:10109000C30F892B91F7015011090A0D1B1DD801AF
:1010A0008C91082E000C990B0E94C30F892B31F0F4
:1010B0000C151D0518F001501109F1CFA8014F5F63
:1010C0005F4F4C195D09F70155834483AC14BD048F
:1010D00020F4B601C5010E948A12D701ED91FC915E
:1010E000119714968D919C91E80FF91F10825DCF96
:1010F000EF92FF920F931F93CF93DF93CDB7DEB79D
:101100006E970FB6F894DEBF0FBECDBF7C018B018A
:1011100062E371E0CE0149960E94D60462E371E079
:10112000CE0143960E94D6046FE471E0CE01019691
:101130000E94D604B801CE0101960E944C04BC0165
:10114000C8010E94B604CE0101960E94DA03F8019C
:1011500064817581CE0101960E948A0461E471E088
:10116000CE0107960E94D604BE016F5F7F4FCE016D
:1011700007960E944C04BC01CE0149960E94B60419
:10118000CE0107960E94DA03CE0101960E94DA038F
:10119000BE01675E7F4FCE0107960E94CD0421E01D
:1011A00040ED57E0BE01695F7F4FCE0101960E947E
:1011B0000107CE0101960E94DA03CE0107960E9434
:1011C000DA03B801CE0107960E94CD0420E040ED7D
:1011D00057E0BE01695F7F4FCE0101960E94010773
:1011E000BE016F5F7F4FCE0143960E948F03CE01F9
:1011F00001960E94DA03CE0107960E94DA03BE012F
:101200006D5E7F4FCE010D960E94CD04BE01635FDF
:101210007F4FCE0101960E94CD0421E030E04BE2E9
:10122000BE016F5F7F4FCE0107960E94E704CE019B
:1012300001960E94DA03BE01695F7F4FCE010196DD
:101240000E94CD0421E030E04AE3BE016F5F7F4F92
:10125000C7010E94E704CE0101960E94DA03CE0185
:1012600007960E94DA03CE010D960E94DA03CE01A2
:1012700043960E94DA03CE0149960E94DA03C70121
:101280006E960FB6F894DEBF0FBECDBFDF91CF9143
:101290001F910F91FF90EF9008951F920F920FB63C
:1012A0000F9211242F933F934F935F936F937F93EC
:1012B0008F939F93AF93BF93EF93FF9387E692E053
:1012C0000E943501FF91EF91BF91AF919F918F9156
:1012D0007F916F915F914F913F912F910F900FBE32
:1012E0000F901F9018951F920F920FB60F92112416
:1012F0002F938F939F93EF93FF93E0917702F09159
:1013000078028081E0917D02F0917E0282FD1BC017
:101310009081809180028F5F8F732091810282176C
:1013200041F0E0918002F0E0E959FD4F958F809304
:101330008002FF91EF919F918F912F910F900FBE9F
:101340000F901F9018958081F4CF1F920F920FB6C7
:101350000F9211242F933F938F939F93AF93BF933B
:101360008091550290915602A0915702B091580277
:101370003091540223E0230F2D3758F50196A11D1B
:10138000B11D209354028093550290935602A0936E
:101390005702B09358028091590290915A02A0913D
:1013A0005B02B0915C020196A11DB11D80935902B0
:1013B00090935A02A0935B02B0935C02BF91AF91ED
:1013C0009F918F913F912F910F900FBE0F901F9083
:1013D000189526E8230F0296A11DB11DD2CF1F92AA
:1013E0000F920FB60F9211242F933F934F935F9359
:1013F0006F937F938F939F93AF93BF93EF93FF93DD
:10140000E0916502F0916602309749F0A685B785B4
:101410008585968D91FF14C09C918923A1F4FF913D
:10142000EF91BF91AF919F918F917F916F915F915C
:101430004F913F912F910F900FBE0F901F901895D5
:101440009C91892361F7A389B4899C9185898095B2
:1014500089238C93868997890197F1F7608D718D27
:10146000A685B785558538E020E0CB010197F1F7D7
:10147000822F90E095958795282F4C91452309F070
:101480002068315091F7868D81FD2095809164020E
:1014900090E001968F73992730916302381799F085
:1014A000A0916402B0E0AC5EBD4F2C9380936402C7
:1014B000828D938D0197F1F7A389B4898C919589D9
:1014C000892B8C93ACCF868D8160868FF1CFEF9284
:1014D000FF920F931F93CF93DF93CDB7DEB7629741
:1014E0000FB6F894DEBF0FBECDBF10926A02109205
:1014F000690288EE93E0A0E0B0E080936B029093E5
:101500006C02A0936D02B0936E028CE191E0909317
:1015100068028093670285EC90E090937402809358
:10152000730284EC90E0909376028093750280ECD5
:1015300090E0909378028093770281EC90E0909312
:101540007A028093790282EC90E090937C028093FF
:101550007B0286EC90E090937E0280937D02109255
:1015600080021092810210928202109283021092E5
:101570000A0310920B0310920C0310920D031092A9
:101580000E0310920F031092100310921103109289
:101590001203109213031092140310921503109269
:1015A000160310921703109218031092190364E5A2
:1015B00071E087EC93E00E94D6046CE571E081EC69
:1015C00093E00E94D60465E671E08BEB93E00E9405
:1015D000D6046BEB73E0CE010D960E94CD0461EC56
:1015E00073E0CE0107960E94CD0467EC73E0CE0154
:1015F00001960E94CD04AE01435F5F4FBE01695F5B
:101600007F4FCE0101960E947805CE0101960E947F
:10161000DA03CE0107960E94DA03CE010D960E94EE
:10162000DA0362E371E08AE793E00E94D60400E502
:1016300013E08AE7E82E83E0F82E62E371E0C80148
:101640000E94D6040A5F1F4FE016F106B1F762E36D
:1016500071E08AE493E00E94D60462960FB6F89493
:10166000DEBF0FBECDBFDF91CF911F910F91FF90D5
:10167000EF900895CF93DF93CDB7DEB7AA970FB65B
:10168000F894DEBF0FBECDBF789484B5826084BD70
:1016900084B5816084BD85B5826085BD85B5816076
:1016A00085BD80916E00816080936E0010928100F4
:1016B00080918100826080938100809181008160AF
:1016C0008093810080918000816080938000809170
:1016D000B10084608093B1008091B00081608093FC
:1016E000B00080917A00846080937A0080917A00C3
:1016F000826080937A0080917A00816080937A0082
:1017000080917A00806880937A001092C1001092D4
:101710004603109247031092480310924903109217
:1017200006031092070310920803109209030E9407
:1017300035024B015C012B013C0128EB420E2BE0F2
:10174000521E611C711C0E943502681579058A05BC
:101750009B0528F04616570668067906A0F70E94F2
:1017600010022B013C0128EE822E23E0922EA12CA8
:10177000B12C0E9410026419750986099709683E08
:10178000734081059105A8F331E0831A9108A108FF
:10179000B10848EE440E43E0541E611C711C8114D4
:1017A0009104A104B10429F70E948D000E94350222
:1017B00060930603709307038093080390930903D3
:1017C00082E791E00E94F1020E9435024B015C0128
:1017D0002B013C018AE0480E511C611C711C0E94C7
:1017E0003502681579058A059B0528F046165706C7
:1017F00068067906A0F781E080931A030E943502FB
:101800006093060370930703809308039093090382
:1018100083E891E00E94F1020E948D006AE871E085
:10182000CE0101960E94D60421E040ED57E0BE01B2
:101830006F5F7F4FCE0143960E940107CE01439612
:101840000E94DA03CE0101960E94DA0361E971E099
:10185000CE0101960E94D60421E040ED57E0BE0182
:101860006F5F7F4FCE0143960E940107CE014396E2
:101870000E94DA03CE0101960E94DA036DE971E05D
:10188000CE0101960E94D60460E873E0CE01019675
:101890000E944C0466EC71E00E94360466E873E036
:1018A0000E944C0468EC71E00E943604BC01CE0139
:1018B00043960E94CD0421E048E55BE1BE016D5EE8
:1018C0007F4FCE0149960E940107CE0149960E94A2
:1018D000DA03CE0143960E94DA03CE0101960E94FC
:1018E000DA0362E973E0CE0185960E94CD046CE8CC
:1018F00073E0CE014F960E94CD0468EA71E0CE01FC
:1019000001960E94D60421E048EE53E0BE016F5FCD
:101910007F4FCE0143960E940107CE0143960E945D
:10192000DA03CE0101960E94DA0364EB71E0CE0186
:1019300001960E94D604BE01615E7F4FCE010196E2
:101940000E944C046AEC71E00E943604BE016B5D9B
:101950007F4F0E944C04BC01CE0143960E94CD04EF
:1019600021E048E853E1BE016D5E7F4FCE0149960C
:101970000E940107CE0149960E94DA03CE014396E8
:101980000E94DA03CE0101960E94DA03CE014F963F
:101990000E94DA03CE0185960E94DA0386E0382E93
:1019A00094EF892E99249394A12CB12C0E94350296
:1019B000672B682B692B09F4EFC00E943502009158
:1019C0005F02109160022091610230916202601703
:1019D00071078207930708F463C100915F021091B9
:1019E000600220916102309162026B017C01C01A99
:1019F000D10AE20AF30A970186010A3F110521057F
:101A0000310508F4D1C060935F0270936002809347
:101A10006102909362028092120390921303A0924B
:101A20001403B0921503109216031092170310922C
:101A300018031092190380910A0390910B03A0914F
:101A40000C03B0910D0380930E0390930F03A093AA
:101A50001003B09311030E94350260930A03709340
:101A60000B0380930C0390930D0387E692E00E9492
:101A70000701843611F40E9442030E9435026093EC
:101A800006037093070380930803909309030E9451
:101A900035022B013C018DEC91E00E94F1024AE0FD
:101AA00061E070E080E090E00E94FE0284ED91E051
:101AB0000E94F1024AE0C301B2010E94FE0286EDDB
:101AC00091E00E94F10280910A0390910B03A09192
:101AD0000C03B0910D03A3019201281B390B4A0B93
:101AE0005B0BCA01B9014AE00E94FE0286ED91E05B
:101AF0000E94F10260910A0370910B0380910C0324
:101B000090910D0300910E0310910F03209110038B
:101B100030911103601B710B820B930B4AE00E9402
:101B2000FE0288ED91E00E94F1020E9435024AE037
:101B30000E94FE028AED91E00E94F10280E391E0B2
:101B40000E94F1020E9435026B017C012B013C01D5
:101B500032E0430E511C611C711C0E9435026C1551
:101B60007D058E059F0528F04616570668067906FE
:101B7000A0F787E692E00E940701843611F40E94E4
:101B800042030E94350260930A0370930B03809313
:101B90000C0390930D0308C00E943502623071055A
:101BA0008105910508F009CF61EE71E0CE01439601
:101BB0000E94D604BE016D5E7F4FCE0101960E9449
:101BC0007808BE016F5F7F4F8AE793E00E948F0322
:101BD000CE0101960E94DA03CE0143960E94DA03F9
:101BE00000915D0210915E026AE773E0CE014396B8
:101BF0000E94CD0498014BE3BE016D5E7F4FCE0184
:101C000001960E94E704BE016F5F7F4F8AE493E074
:101C10000E948F0380914E0390914F037724739419
:101C2000892B49F0E0914A03F0914B037724739498
:101C300080818111712CCE0101960E94DA03CE01C0
:101C400043960E94DA03711034C06AE473E0CE0157
:101C500043960E94CD0421E030E04DE3BE016D5E6D
:101C60007F4FCE0101960E94E704309EC001319E55
:101C7000900D1124BE016F5F7F4F805B9C4F0E94CF
:101C80008F03CE0101960E94DA03CE0143960E9493
:101C9000DA030F5F1F4F10935E0200935D02A0CF27
:101CA00060935F027093600280936102909362027E
:101CB00094CE10925E0210925D0280915C0390912E
:101CC0005D03009709F4C9C00E949C0F18A21F8EE3
:101CD0001AA219A21CA21BA2CB0102964AE0BE01C5
:101CE0006F5F7F4F0E94CC0FBE016F5F7F4FCE01B1
:101CF0004F960E948004BE01615E7F4FCE01019627
:101D00000E94CD046AEE71E0CE0143960E94D60493
:101D100061EE71E0CE0149960E94D604AE014F5F9C
:101D20005F4FBE016D5E7F4FCE0149960E948407D2
:101D3000CE0149960E94DA03CE0143960E94DA034F
:101D4000CE0101960E94DA0363EF71E0CE010196A5
:101D50000E94D6046EEF71E0CE0143960E94D60435
:101D60006EEF71E0CE0149960E94D604AE014F5F3E
:101D70005F4FBE016D5E7F4FCE0149960E94840782
:101D8000CE0149960E94DA03CE0143960E94DA03FF
:101D9000CE0101960E94DA036EE271E0CE01019657
:101DA0000E94D60464E072E0CE0143960E94D604FD
:101DB00061EE71E0CE0149960E94D604AE014F5FFC
:101DC0005F4FBE016D5E7F4FCE0149960E94840732
:101DD000CE0149960E94DA03CE0143960E94DA03AF
:101DE000CE0101960E94DA036EE271E0CE01019607
:101DF0000E94D6046BE072E0CE0143960E94D604A6
:101E000061EE71E0CE0149960E94D604AE014F5FAB
:101E10005F4FBE016D5E7F4FCE0149960E948407E1
:101E2000CE0149960E94DA03CE0143960E94DA035E
:101E3000CE0101960E94DA03CE014F960E94DA038A
:101E400040E050E0452B09F4B1CD0E9421018823E8
:101E500009F4ACCD0E940000A9CD60E070E0CB0198
:101E600035CFCF93DF938AE493E00E94DA03CAE789
:101E7000D3E02697CE010E94DA0323E0C035D207D3
:101E8000C1F78AE793E00E94DA038AE091E0909339
:101E90009D0380939C0380916502909166028C590A
:101EA000934071F4E091AF03F091B0039081809181
:101EB000B103809589238083109266021092650297
:101EC00082E993E00E94DA038CE893E00E94DA034F
:101ED00086E893E00E94DA0380E893E00E94DA0348
:101EE0008BEB93E00E94DA0381EC93E00E94DA032B
:101EF00087EC93E0DF91CF910C94DA03FC01882703
:101F00009927E89421912032E9F3293010F02E30FE
:101F1000C8F32B3241F02D3239F4689404C00E948A
:101F2000EC0F820F911D219120532A30C0F31EF433
:101F3000909581959F4F08951F93FC0199278827BD
:101F4000BC01E89411911032E9F3193010F01E3001
:101F5000C8F31B3251F01D3249F4689406C00E9448
:101F6000D70F610F711D811D911D119110531A30F2
:101F7000B0F33EF490958095709561957F4F8F4FAB
:101F80009F4F1F91089591110C940E10803219F0FB
:101F900089508550C8F70895BB274A3031F49923FA
:101FA00022F4BDE2909581959F4F0C94F50F592F27
:101FB000482F372F262F660F771F881F991F660F10
:101FC000771F881F991F620F731F841F951F660F4D
:101FD000771F881F991F08957AE0979F902D879FFC
:101FE000802D910D11240895BB27FB015527AA27A9
:101FF000880F991FAA1FA41710F0A41B8395505196
:10200000B9F7A05DAA3308F0A95DA193009779F70D
:10201000B111B1931192CB010C941110992788271B
:102020000895DC01FC01672F71917723E1F7329766
:1020300004C07C916D9370836291AE17BF07C8F3A3
:102040000895A1E21A2EAA1BBB1BFD010DC0AA1FF9
:10205000BB1FEE1FFF1FA217B307E407F50720F011
:10206000A21BB30BE40BF50B661F771F881F991F8C
:102070001A9469F760957095809590959B01AC01D5
:10208000BD01CF0108952F923F924F925F926F92C0
:102090007F928F929F92AF92BF92CF92DF92EF92F8
:1020A000FF920F931F93CF93DF93CDB7DEB7CA1B79
:1020B000DB0B0FB6F894DEBF0FBECDBF09942A88A4
:1020C000398848885F846E847D848C849B84AA844C
:1020D000B984C884DF80EE80FD800C811B81AA81D9
:1020E000B981CE0FD11D0FB6F894DEBF0FBECDBFA4
:1020F000ED01089597FB072E16F4009407D077FDA5
:1021000009D00E948E1007FC05D03EF49095819571
:102110009F4F0895709561957F4F0895AA1BBB1B33
:1021200051E107C0AA1FBB1FA617B70710F0A61BD7
:10213000B70B881F991F5A95A9F780959095BC01F8
:10214000CD010895EE0FFF1F0590F491E02D099445
:102150000F931F93CF93DF938230910510F482E0A9
:1021600090E0E091CF03F091D00330E020E0B0E0C8
:10217000A0E0309799F42115310509F44AC0281BD5
:10218000390B24303105D8F58A819B8161157105A1
:1021900089F1FB0193838283FE0111C0408151814B
:1021A0000281138148175907E0F04817590799F43D
:1021B000109761F012960C93129713961C93329617
:1021C000CF01DF91CF911F910F9108950093CF031D
:1021D0001093D003F4CF2115310551F04217530766
:1021E00038F0A901DB019A01BD01DF01F801C1CF7F
:1021F000EF01F9CF9093D0038093CF03CDCFFE01B1
:10220000E20FF31F81939193225031093983288380
:10221000D7CF2091CD033091CE03232B41F42091D1
:102220000201309103013093CE032093CD0320911E
:102230000001309101012115310541F42DB73EB760
:102240004091040150910501241B350BE091CD0311
:10225000F091CE03E217F307A0F42E1B3F0B2817D3
:10226000390778F0AC014E5F5F4F2417350748F00F
:102270004E0F5F1F5093CE034093CD0381939193F4
:102280009FCFF0E0E0E09CCFCF93DF930097E9F0A1
:10229000FC01329713821282A091CF03B091D00338
:1022A000ED0130E020E01097A1F420813181820F10
:1022B000931F2091CD033091CE032817390709F0E1
:1022C00061C0F093CE03E093CD03DF91CF910895E9
:1022D000EA01CE17DF07E8F54A815B819E014115CF
:1022E0005105B1F7E901FB83EA8349915991C40F84
:1022F000D51FEC17FD0761F4808191810296840F50
:10230000951FE90199838883828193819B838A83C6
:10231000F0E0E0E012968D919C9113970097B9F54B
:102320002D913C911197CD010296820F931F209120
:10233000CD033091CE032817390739F6309751F580
:102340001092D0031092CF03B093CE03A093CD038D
:10235000BCCFD383C28340815181840F951FC8179E
:10236000D90761F44E5F5F4F88819981480F591FEB
:10237000518340838A819B81938382832115310518
:1023800009F0B0CFF093D003E093CF039ECFFD01CF
:10239000DC01C0CF13821282D7CFB0E0A0E0E3ED22
:1023A000F1E10C9445108C01009751F4CB010E948F
:1023B000A8108C01C801CDB7DEB7E0E10C94611024
:1023C000FC01E60FF71F9C0122503109E217F307C9
:1023D00008F49DC0D901CD91DC911197C617D7079C
:1023E00098F0C530D10530F3CE01049786179707D2
:1023F00008F3C61BD70B2297C193D1936D937C939F
:10240000CF010E944411D6CF5B01AC1ABD0A4C012A
:102410008C0E9D1EA091CF03B091D003512C412C66
:10242000F12CE12C109731F58091CD039091CE03E2
:102430008815990509F05CC04616570608F058C083
:102440008091000190910101009741F48DB79EB7F2
:102450004091040150910501841B950BE817F90781
:1024600008F055C0F093CE03E093CD03F9017183DA
:102470006083A0CF8D919C91119712966C901297CA
:1024800013967C901397A815B90559F56C0142E095
:10249000C40ED11CCA14DB0420F1AC014A195B093B
:1024A000DA011296159780F062827382518340831D
:1024B000D9016D937C93E114F10471F0D701139667
:1024C000FC93EE93129776CF22968C0F9D1FF90105
:1024D00091838083F301EFCFF093D003E093CF0398
:1024E00069CF4816590608F42C017D01D3019ACF13
:1024F000CB010E94A8107C01009749F0AE01B80101
:102500000E948A12C8010E944411870153CF10E033
:1025100000E050CFFB01DC0102C001900D92415060
:102520005040D8F70895FB01DC0101900D92002086
:10253000E1F7089510E0C2E6D0E004C0FE010E9479
:0E254000A2102196C336D107C9F7F894FFCF39
:10254E000000D1038000000000005902B600EE0228
:10255E00E300B502CD024102000000005701B600B3
:10256E00E400A4011501F3000701313330303000CF
:10257E000D0A0053656E64696E6720005345542E34
:10258E000041542B43495053454E443D302C004797
:10259E0045542E0057494649424F5800317131710A
:1025AE0031713171003139322E3136382E312E39AA
:1025BE003200564D4450565F317C315F564D44507B
:1025CE00560A00564D4450525F0041542B525354FC
:1025DE000041542B43574D4F44453D310041542B40
:1025EE0043574A41503D220041542B4349504D55CB
:1025FE00583D310041542B43495053544152543DA0
:10260E00302C22544350222C2200222C00564D44B2
:10261E0050455F003A323A007C005F564D445045BB
:10262E00004155544F5041524B0043415041434994
:10263E0054590057524F4E4720504153530054485F
:10264E0049454600494E47415445004F5554474170
:04265E0054450000DF
:00000001FF
